:020000040800F2
:10000000780800200101000869100008050E0008AA
:10001000671000086D010008DF15000800000000EF
:10002000000000000000000000000000791500083A
:100030006F010008000000006B1000087B1500082D
:100040001B0100081B0100081B0100081B01000820
:100050001B0100081B0100081B0100081B01000810
:100060001B0100081B0100081B0100081B01000800
:100070001B0100081B0100081B0100081B010008F0
:100080001B0100081B0100081B0100081B010008E0
:100090001B0100081B0100081B0100081B010008D0
:1000A0001B0100081B0100081B0100081B010008C0
:1000B0001B0100081B0100081B0100081B010008B0
:1000C0001B0100081B0100081B0100081B010008A0
:1000D0001B0100081B0100081B0100081B01000890
:1000E0001B0100081B0100081B010008DFF80CD0F1
:1000F00000F02AF800480047211600087808002080
:100100000648804706480047FEE7FEE7FEE7FEE7B1
:10011000FEE7FEE7FEE7FEE7FEE7FEE7DD15000887
:10012000ED000008D2B201E000F8012B491EFBD21D
:1001300070470022F6E710B513460A4604461946F2
:10014000FFF7F0FF204610BD064C074D06E0E068C3
:1001500040F0010394E8070098471034AC42F6D30E
:10016000FFF7C8FF7052000890520008FEE7704782
:1001700070B5044600F0FEF80546601C02D0044845
:100180000078044400F0F6F8401BA042FAD370BD9A
:10019000100000202DE9F84FDFF8B891002409F194
:1001A000040A0AF1040B23460F270BF1040EC9E0E1
:1001B0000125A5402A40AA427DD1674ED1F804C04E
:1001C000ACEB0608B44532D014DCBCF1030F3AD0D6
:1001D00009DCBCF1000F2AD0BCF1010F1CD0BCF12E
:1001E000020F31D11DE0BCF1110F17D0BCF1120F7D
:1001F0002AD119E0B8F5881F19D006DCB8F5803F80
:1002000015D0B8F5801F1FD111E0B8F5001F0ED032
:10021000B8F5041F18D10AE0CB6815E0CB681B1DA8
:1002200012E0CB6808330FE0CB680C330CE08B682E
:100230002BB1012B4FF0080303D0456104E00423E8
:1002400002E0056100E00023FF2A01D8064601E034
:1002500000F104064FEA840501D9A5F12005D6F87E
:10026000008007FA05FC28EA0C0803FA05F548EABD
:100270000508C6F800804D68ED0062D5374DAE69BF
:1002800046F00106AE61AD6924F0030605F00105F4
:100290000095334D06EB050CDCF80850A607360F29
:1002A00007FA06F825EA0805DFF8B880404503D1CB
:1002B0004FF0000817E044E0DFF8AC80404502D181
:1002C0004FF001080FE0DFF8A480404502D14FF065
:1002D000020808E0DFF89880404502D14FF003089B
:1002E00001E04FF0040808FA06F848EA0508CCF8DF
:1002F00008804D68D9F80060ED034D4601D51643DE
:1003000000E096432E604D68DAF80060AD03554674
:1003100001D5164300E096432E604D68DBF800607F
:10032000ED025D4601D5164300E096432E604D6810
:10033000DEF80060AD02754601D5164300E0964335
:100340002E60641C0D682A46E5407FF431AFBDE89D
:10035000F88F00000004014000001110001002405E
:100360000000014000080140000C01400010014065
:100370000014014001488068704700001000002010
:1003800070B5040025D094F83D00002520B984F80C
:100390003C50204600F0FEF9242084F83D002068FF
:1003A000016821F0010101602068016841F4004109
:1003B00001602068016821F40041016000F038FB11
:1003C0004A4A6168914201D8494900E04949884256
:1003D00001D2012070BD48492368B0FBF1F15E688D
:1003E00026F03F060E435E606368934206D94FF4E1
:1003F000967359434FF47A73B1FBF3F12368491CA8
:100400001E6A26F03F0631431962616891420AD89C
:100410004900401EB0FBF1F0401CC0F30B00042863
:100420001ED204201CE0A368F3B301EBC10202EB6F
:100430000116421EB2FBF6F2521C42F48042120533
:1004400049D093B301EBC10202EB0111401EB0FB96
:10045000F1F0401CC0F30B0040F4804040F4004039
:100460002168CA694CF6FF739A431043C861D4E906
:10047000071001432068026822F0C00211430160A6
:10048000D4E9030101432068826848F2FF339A43AC
:1004900011438160D4E9050108432168CA6822F04C
:1004A000FF021043C86001E00EE016E0206801681A
:1004B00041F0010101602564202084F83D0025639E
:1004C00084F83E50002070BD01EB4106421EB2FB95
:1004D000F6F2521CB3E70120C2E701EB4101401ED6
:1004E000B0FBF1F0401CC0F30B00B7E7A0860100A1
:1004F00080841E0000093D0040420F002DE9FF4F9F
:1005000081B089460446FFF735FF054694F83D0063
:100510004FF0010820287DD119230122504920469F
:10052000009500F0FBFC002874D194F83C000128F1
:1005300070D0012084F83C0020680168C90703D10D
:10054000016841F0010101602068016821F4006147
:100550000160242084F83D00002626644148E062C2
:100560004FF0011B20272068016841F48071016071
:100570000095002259462046049B00F0CFFC50B164
:1005800020680068C00502D54FF400702064032085
:1005900005B0BDE8F08F216809F0FE000861FFF7A3
:1005A000E9FE2168054648694969C0F34000C1F386
:1005B00080214FF0A00A0FE0FFF7DCFE411B0498FA
:1005C000814200D808B984F83DA02168486949698A
:1005D000C0F34000C1F3802194F83D20A02A02D04E
:1005E00008B90029E8D084F83D7020684169C94302
:1005F000890716D4016841F40071016020684169DF
:1006000080691923012216492046009500F086FCD6
:10061000B8B900E021E084F83D7084F83C60002027
:10062000B6E7016841F40071016021686FF48060F1
:100630004861192301220A492046009500F06EFC0A
:1006400008B10120A4E7039808F1010880458AD386
:1006500084F83D7084F83C60F3E7022098E70000DE
:10066000020010000000FFFF2DE9F84F1F469046E2
:100670008A460446DDF82890FFF77CFE054694F88C
:100680003D0020287FD119230122404920460095B2
:1006900000F044FC002876D194F83C00012872D088
:1006A000012084F83C0020680168C90703D1016873
:1006B00041F0010101602068016821F400610160DE
:1006C000212084F83D00102084F83E000026266496
:1006D000C4F824806785608D20852D48E0622B4614
:1006E0004A465146204600F0A5FB90B92068416972
:1006F0008069009036E02A464946204600F08DFC8D
:1007000050B1206C042804D12068016841F40071C4
:1007100001600120BDE8F88F606A216800780861F7
:10072000606A401C6062618D491E6185218D491E91
:1007300089B2218522685369DB435B070BD451B131
:1007400000781061606A401C6062608D401E6085A8
:10075000208D401E20852A464946204600F0B8FBE1
:100760000028CED1208D0028C5D154F83D0B01685A
:1007700041F400710160202004F81E09E6776677D5
:100780000020C7E7FFE70220C4E7000002001000D6
:100790000000FFFF10B586B0002100910191029189
:1007A000039100680F4988421AD10F4CA06940F0AC
:1007B0000800A061A069694600F008000490C0200C
:1007C000009012200190032003900848FFF7E2FCFC
:1007D000E06940F40010E061E06900F4001004906A
:1007E00006B010BD0054004000100240000C014053
:1007F000024881680278114481607047100000202F
:10080000074810B5016841F010010160032000F0B5
:1008100067F8002000F006F800F024F8002010BD72
:100820000020024070B50D4D04464FF47A712878CF
:10083000B1FBF0F00A490968B1FBF0F000F0CEFA24
:1008400048B9102C07D200222146501E00F028F88B
:1008500000206C6070BD012070BD00001000002001
:100860001C0000200C4808B5816941F0010181613C
:10087000816901F001010091C16941F08051C161BC
:10088000C06900F0805000900448416821F0E061A8
:1008900041F00071416008BD0010024000000140BD
:1008A000F0B40E4B1B680C46C3F30223C3F10705DB
:1008B000042D00D90425191D072901D2002300E0C9
:1008C000DB1E012606FA05F1491E214099409E4093
:1008D000761E16403143F0BC00F082BE0CED00E005
:1008E000064900F0070208684FF6FF03184040EA87
:1008F0000220034A10430860704700000CED00E03E
:100900000000FA052DE9F0470F46050061D0434E7F
:10091000306800F00700B84209D2306820F00700C4
:1009200038433060306800F00700B84251D1286881
:100930003B4C810712D5400703D5606840F4E06066
:1009400060602878000703D5606840F460506060FC
:100950006068A96820F0F000084360602878C0074C
:1009600028D06868012810D02168022810D0890793
:1009700000292EDA616821F0030101436160FFF76D
:10098000F9FC804641F288390DE021688903EFE7E0
:100990008901EDE7FFF7EEFCA0EB0801494502D91C
:1009A0000320BDE8F0876068696800F00C00B0EBD8
:1009B000810FEFD1306800F00700B8420BD93068E2
:1009C00020F0070038433060306800F00700B8427C
:1009D00001D00120E5E72878400705D56068E9687F
:1009E00020F4E060084360602878000706D560685E
:1009F000296920F4605040EAC100606000F028F8E6
:100A00006168084AC1F30311515CC8400649086097
:100A100006480068FFF706FF0020C2E700200240FA
:100A200000100240585200081C0000201400002052
:100A30000448054900684968044AC1F30221515C31
:100A4000C84070471C000020001002406852000897
:100A500012A185B00FC98DE80F0014A0144A0068D8
:100A600004905168134801F00C03042B10D0082B9C
:100A70000ED1C1F38343C9031DF803000AD55168A1
:100A800004AAC1F34041515C0A4A5043B0FBF1F063
:100A900005B0704708494843FAE70000020304051F
:100AA000060708090A0B0C0D0E0F101001020000BA
:100AB0000010024000127A0000093D002DE9F84FB5
:100AC000040070D02078C04DC00749D06868C0F3DA
:100AD0008100012807D06868C0F38100022809D18D
:100AE0006868C00306D52868800339D56068002887
:100AF000E7D035E06068B0F5803F0BD010B1B0F5BD
:100B0000A02F11D0286820F480302860286820F4B5
:100B1000802002E0286840F480302860606890B14E
:100B2000FFF728FC06460AE0286840F48020286089
:100B3000F0E700BFFFF71EFC801B642873D828680D
:100B40008003F7D50CE0FFF715FC064605E000BF73
:100B5000FFF710FC801B6428F0D828688003F7D4C6
:100B600020789A4E80074FF001094FF0000839D5E0
:100B7000686810F00C0F07D06868C0F38100022885
:100B800009D16868C00306D42868800714D5206995
:100B9000012808D110E02069B0B1C6F80090FFF735
:100BA000E9FB074605E00AE1FFF7E4FBC01B02286A
:100BB000C4D828688007F7D52868616920F0F80054
:100BC00040EAC10028600DE0C6F80080FFF7D2FBC4
:100BD000074604E0FFF7CEFBC01B022823D8286895
:100BE0008007F7D4207800072CD57948A169D9B1BE
:100BF000C0F80090FFF7BEFB074604E0FFF7BAFB22
:100C0000C01B02280FD8686A8007F7D571484FF4D7
:100C1000FA510068B0FBF1F0009000BF0098411E4F
:100C20000091FAD20EE080E0C0F80080FFF7A2FB4E
:100C3000074604E0FFF79EFBC01B022875D8686AD0
:100C40008007F7D42078400760D5E8690027C00006
:100C500008D4E86940F08050E861E869012700F0B5
:100C6000805000905C480168C90513D40168834630
:100C700041F480710160FFF77DFB824606E000BF12
:100C8000FFF778FBA0EB0A0064284ED8DBF80000E1
:100C9000C005F5D5E06801280AD008B1052813D0B1
:100CA000286A20F001002862286A20F0040002E08F
:100CB000286A40F001002862E06841F2883B98B160
:100CC000FFF758FB82460BE0286A40F004002862D8
:100CD000EEE700BFFFF74EFBA0EB0A0159455AD8DB
:100CE000286A8007F6D50CE0FFF744FB824605E052
:100CF000FFF740FBA0EB0A0159454CD8286A800752
:100D0000F6D41FB1E86920F08050E861E06988B34B
:100D10006968C1F38101022944D00228C6F86080C5
:100D200004D0FFF727FB044638E034E0FFF722FB4E
:100D3000074604E0FFF71EFBC01B02282BD82868DB
:100D40008001F7D4206AB0F5803F05D16868A168BA
:100D500020F4003008436860D4E90801084369685A
:100D600021F4741108436860C6F86090FFF702FB35
:100D7000044606E025E000BFFFF7FCFA001B02284E
:100D800009D828688001F7D51BE000BFFFF7F2FA09
:100D9000001B022802D90320BDE8F88F28688001D3
:100DA000F4D40EE00128F7D06868226A00F480319C
:100DB000914204D1616A00F47010884201D0012090
:100DC000EAE70020E8E7000000100240000042428D
:100DD000800442421C0000200070004010B5401EFC
:100DE000B0F1807F01D3012010BD4FF0E02460619D
:100DF0000F21601700F0F4FB0020A06107202061A4
:100E0000002010BDFEE701684A69D24352050FD4A5
:100E10006FF480624A61002140F8301F2022427343
:100E20008173026942F0040202610173012070477C
:100E300000207047F8B50446C06A1E460D461746A6
:100E4000082807D0012805D010F5803F02D0206B7C
:100E5000122804D12068016841F4807101601346B2
:100E600000224FF001112046009600F057F840B1E3
:100E700020680068C00502D54FF40070206403208C
:100E8000F8BD2069B0F5804F0ED00620216800EA39
:100E9000D51040F0F000086133463A460B49204631
:100EA00000F070F878B902E005F0FE0000E0E8B26A
:100EB00021680861054933463A46891F204600F0FB
:100EC00061F80028DCD00120F8BD00000800010016
:100ED00070B516460D4604460DE02046FFF793FF19
:100EE00008B1012070BD681C05D0FFF743FA801BD4
:100EF000A84207D835B120684069C0434007ECD408
:100F0000002070BD002044F8300F20216173A073D1
:100F1000216941F0200121612073E2E72DE9F047CA
:100F20001E4690460D460446C1F30747DDF8209063
:100F300008E0701C06D0FFF71DFAA0EB0900B042D4
:100F40000FD876B12068012F18D0806925EA0000FB
:100F50000004000C14D000214145EAD00020BDE877
:100F6000F087002044F8300F20216173A0732169BD
:100F700041F02001216120730120F0E74069E5E79D
:100F80000121E9E72DE9F0479A4691460E460446CD
:100F900000254FF02008C1F3074725E0206840698D
:100FA000C043400514D42068016841F40071016019
:100FB00021686FF480604861256384F83D8084F87F
:100FC0003E50206C40F00400206484F83C501FE048
:100FD000B9F1FF3F08D0FFF7CDF9A0EB0A01494571
:100FE0000CD8B9F1000F09D02068012F13D0806907
:100FF00026EA00000004000C0BD0CFE744F8305F75
:1010000084F80D80A573206940F0200020612573CD
:101010000120BDE8F0874069EAE770B516460D4645
:1010200004460DE02046FFF7EEFE08B1012070BD3A
:10103000681C05D0FFF79EF9801BA84207D835B180
:1010400020684069C0430006ECD4002070BD002039
:1010500044F8300F20216173A073216941F0200111
:1010600021612073E2E7FEE7FEE7704710B500203C
:1010700000F05EF8BDE8104000F05ABA2DE9FF4FCD
:1010800083468946D81DC11700EB517000271D46C5
:101090004FEAE00A3E46DDF8348024E000241AE0FE
:1010A000600702D07806070E08E0E01704EB5071E5
:1010B000029800EBE10106FB0A100778380608D514
:1010C0000E981FFA89F1C2B20BEB040080B200F057
:1010D0000FF8641C24B2AC42E2DB761C09F101007B
:1010E00036B20FFA80F94645D8DBBDE8FF8F000025
:1010F00070B5802813D2402911D20B4B012401F086
:1011000007051E79AC40094BC90800EBC1100EB1B0
:1011100032B101E0012A03D0195CA143195470BD1A
:10112000195C2143FAE70000080000207400002049
:1011300028B1FF224FF480610248FEF7F3BF00227E
:10114000F8E7000074000020014A108051807047C9
:101150000800002010B500F09FFB44F62063012238
:1011600078215448FFF7CAF908B1002010BD40F6B5
:10117000C210401EFDD1AE220021782000F092FB6B
:1011800020220021782000F08DFB10220021782001
:1011900000F088FBB0220021782000F083FBC822F9
:1011A0000021782000F07EFB00221146782000F01C
:1011B00079FB10220021782000F074FB40220021EE
:1011C000782000F06FFB81220021782000F06AFB7C
:1011D000FF220021782000F065FBA1220021782069
:1011E00000F060FBA6220021782000F05BFBA82223
:1011F0000021782000F056FB3F220021782000F0EB
:1012000051FBA4220021782000F04CFBD3220021C6
:10121000782000F047FB00221146782000F042FBC6
:10122000D5220021782000F03DFBF022002178201B
:1012300000F038FBD9220021782000F033FB222275
:101240000021782000F02EFBDA220021782000F027
:1012500029FB12220021782000F024FBDB22002150
:10126000782000F01FFB20220021782000F01AFBDC
:101270008D220021782000F015FB14220021782017
:1012800000F010FBAF220021782000F00BFB2E2293
:101290000021782000F006FB0020FFF749FF00F056
:1012A00047F905480021018041800121417108462C
:1012B00010BD0000200000200800002008B1A72277
:1012C00000E0A6220021782000F0ECBA2DE9F047DA
:1012D000814625480D46924601882A781144802986
:1012E00005D28046408869780844402802D300200F
:1012F000BDE8F08700262AE0A9F1200101FB00608B
:101300006A68002432F810701DE000BF07FA04F08C
:10131000000409D5B8F80210B8F8000031442044A0
:1013200089B280B252460BE0BAF1000F1AD0002207
:10133000B8F80210B8F800003144204489B280B2F5
:10134000FFF7D6FE641C2878A042DFD8761C6878A8
:10135000B042D1D8B8F800102A7848461144A8F80D
:101360000010C5E70122E3E70800002070B515462C
:101370000E46044609E02A463146FFF7A7FF2178CA
:10138000884201D0C8B270BD641C20780028F2D118
:10139000C0B270BD70B50C460546272200217820EA
:1013A00000F080FA00221146782000F07BFA2A46ED
:1013B0000021782000F076FA00221146782000F013
:1013C00071FA22460021782000F06CFA00221146C2
:1013D000782000F067FAFF220021782000F062FAFE
:1013E000BDE870402F220021782000F05BBA70B574
:1013F0000C46054626220021782000F053FA0022F0
:101400001146782000F04EFA2A460021782000F09C
:1014100049FA00221146782000F044FA22460021C1
:10142000782000F03FFA00221146782000F03AFAC6
:10143000FF220021782000F035FABDE870402F220D
:101440000021782000F02EBA70B50C460546A32284
:101450000021782000F026FA00221146782000F0C2
:1014600021FA40220021782000F01CFA2A220021D3
:10147000782000F017FA00221146782000F012FAC6
:101480002A460021782000F00DFA0022114678202B
:1014900000F008FA22460021782000F003FA012229
:1014A0000021782000F0FEF9BDE870402F220021D5
:1014B000782000F0F7B970B50C460546A32200214C
:1014C000782000F0EFF900221146782000F0EAF9C8
:1014D00040220021782000F0E5F92922002178201F
:1014E00000F0E0F900221146782000F0DBF92A46EE
:1014F0000021782000F0D6F900221146782000F073
:10150000D1F922460021782000F0CCF901220021F7
:10151000782000F0C7F9BDE870402F220021782024
:1015200000F0C0B92E220021782000F0BBB90000E5
:1015300070B5104D002400BF04F1B000C2B200210C
:10154000782000F0AFF900221146782000F0AAF9C7
:1015500010220021782000F0A5F905EBC4128023A9
:101560004021782000F0AEF9641CE4B2082CE3D3EB
:1015700070BD0000740000207047FFF739B930B526
:101580008FB028216846FEF7D4FD14210AA8FEF783
:10159000D0FD01210804CDE90010002402940225A9
:1015A0000491CDE907504FF4E01009906846FFF729
:1015B00085FA08B172B6FEE70F20CDE90A054FF4AF
:1015C0008060CDE90C4002210AA80E94FFF79AF939
:1015D000002801D072B6FEE70FB030BD7047FEE7BD
:1015E0000907090E002804DB00F1E02080F8001450
:1015F000704700F00F0000F1E02080F8141D7047E4
:1016000002E008C8121F08C1002AFAD170477047CB
:10161000002001E001C1121F002AFBD17047000029
:101620001CB5FFF7EDF8FFF7AAFF8648816941F086
:1016300020018161816901F020010091816941F0FF
:1016400004018161816901F004010091816941F027
:101650000801816180697C4900F0080000907B48A6
:101660004FF4804201607A49416000218160C0E905
:10167000031241618161C1610162FEF781FE08B11F
:1016800072B6FEE7FFF766FD00210846FFF75CFD36
:101690000122704970A0FFF769FE1E210A20FFF7A2
:1016A00053FD01226B496EA0FFF760FEFFF740FF7C
:1016B0004FF4FA663046FEF75BFD07210020FFF786
:1016C00096FE3046FEF754FD07210020FFF762FE2C
:1016D0003046FEF74DFDFFF725FFFFF7C7FC01245D
:1016E0004025CDE9005400218023604A0846FFF7D9
:1016F000C5FCFFF71DFF3046FEF73AFD0F21002025
:10170000FFF775FE3046FEF733FD0F210020FFF78F
:1017100041FE3046FEF72CFD0F210020FFF7CBFEE7
:101720003046FEF725FD0F210020FFF78DFE3046E5
:10173000FEF71EFDFFF7F6FE0120FFF7BFFD304666
:10174000FEF716FD0020FFF7B9FD3046FEF710FD4D
:10175000FFF78CFCCDE9005400218023444A084661
:10176000FFF78CFCFFF7E4FEFFF780FCCDE90054A7
:10177000002180233F4A0846FFF780FCFFF7D8FE90
:10178000FFF774FCCDE90054002180233A4A084653
:10179000FFF774FCFFF7CCFEFFF768FCCDE90054BF
:1017A00000218023354A0846FFF768FCFFF7C0FE9A
:1017B000FFF75CFCCDE9005400218023304A084645
:1017C000FFF75CFCFFF7B4FEFFF750FCCDE90054D7
:1017D000002180232B4A0846FFF750FCFFF7A8FEA4
:1017E000FFF744FCCDE9005400218023264A084637
:1017F000FFF744FCFFF79CFEFFF738FCCDE90054EF
:1018000000218023214A0846FFF738FCFFF790FEAD
:10181000FFF72CFCCDE90054002180231C4A084628
:10182000FFF72CFCFFF784FEFFF720FCCDE9005406
:1018300000218023174A0846FFF720FCFFF778FEB7
:1018400086E7000000100240005400402000002005
:10185000801A06000000002048454C4C4F00000054
:101860002020574F524C44203A290000FC18000811
:10187000FC1C0008FC200008FC240008FC280008D0
:10188000FC2C0008FC300008FC340008FC38000880
:10189000FC3C0008FC4000080148401EFDD1704798
:1018A00090D003001CB502238DF804100A2100918A
:1018B0008DF80520014601AA0148FEF7D5FE1CBDA2
:1018C0002000002070B5C2B000248DF8041001A9DA
:1018D00004E0155D0E19641C7570E4B29C42F8D3E7
:1018E0000A2100915B1C01469BB201AA0248FEF747
:1018F000BBFE42B070BD00002000002000000000D0
:1019000000000000000000000000000000000000D7
:101910000000000000003FC00000000000000000C8
:101920000000000000007FE0000000000000000058
:1019300000000001C000FFF00000000000000000F7
:101940000000007FFF00FFF000000000000000002A
:10195000000001E001E1FFF80000000000000000CD
:1019600000000F000031FFF8000000000000000040
:1019700000001E000011FFF8000000000000000041
:1019800000007FE003F9FFF000000000000000000D
:101990000000F03C1F00FFF000000000000000000D
:1019A0000001C007F000FFF0000000000000000090
:1019B0000003C003E0007FE0000000000000000022
:1019C0000006600770001F8000000000000000009B
:1019D000000E300C1C0000000000000000000000A1
:1019E000000E183806000000000000000000000093
:1019F000001C0C700300100000000000000000003C
:101A0000001C07C001C01E00000000000000000014
:101A10000034038000601B00000000000000000094
:101A20000024038000301B000000000000000000C4
:101A3000006606E000181100000000000000000031
:101A400000660C70000C1180000000000000000017
:101A5000004218380004318000000000000000003F
:101A60000043300C00063080000000000000000041
:101A700000C32006000320800000000000000000DA
:101A800000C1E0030001E080000000000000000051
:101A900000C1C0018000C080000000000000000004
:101AA00000C0C000C000C0800000000000000000B6
:101AB00000C1C0006001C080000000000000000004
:101AC00000C1E0003001E0800000000000000000E4
:101AD00000C3300018032080000000000000000058
:101AE000004310000C0631800000000000000000E0
:101AF00000421800060C31800000000000000000C9
:101B000000660C0003981180000000000000000037
:101B10000066060001F0190000000000000000004F
:101B20000024030000F01B00000000000000000083
:101B30000034018000F01A000000000000000000E6
:101B4000001C00E001981E000000000000000000E2
:101B500000000070030C1C000000000000000000EA
:101B6000000000180E061C0000000000000000002D
:101B70000000000E18031800000000000000000024
:101B800000FE0003F001B0000000000000000000B3
:101B900001FF8003E000E000000000000000000002
:101BA00003FF800F7800C00000000000000000006C
:101BB00007FFC0FC0FCF8000000000000000000005
:101BC00007FFC7C001FF0000000000000000000088
:101BD00007FFC600001C000000000000000000001D
:101BE00007FFC78000780000000000000000000030
:101BF00007FFC1F007C00000000000000000000067
:101C000007FFC03FFE0000000000000000000000D1
:101C100003FF800000000000000000000000000042
:101C200001FF0000000000000000000000000000B4
:101C3000007E000000000000000000000000000026
:101C40000000000000000000000000000000000094
:101C50000000000000000000000000000F0F8C27B3
:101C6000F7E1F0C181F9F0FBF9F0F18C1939CE21DF
:101C7000C63398C181819980E181918C3030CF2029
:101C800086330CC181818D804103018C30304F201F
:101C900086320CC181F198F041F301FC30304DE007
:101CA00087E20CC18181F018438301FC3030CCE025
:101CB00086630CC18181B00C4103018C1D9FCC60F7
:101CC0008663F8FDF9F999D841F1D98C0F0F0C20F2
:101CD0008630F0FDF9F98CF041F0F18C0000000045
:101CE00000000000000000000000000000000000F4
:101CF00000000000000000000000000000000000E4
:101D000000000000000000000000000000000000D3
:101D100000000000000000000000000000000000C3
:101D200000000000000000000000000000000000B3
:101D300000000000000000000000000000000000A3
:101D40000000000000000000000000000000000093
:101D50000000000000000000000000000000000083
:101D60000000000000000000000000000000000073
:101D70000000000000000000000000000000000063
:101D80000000000000000000000000000000000053
:101D90000000000000000000000000000000000043
:101DA0000000000000000000000000000000000033
:101DB0000000000000000000000000000000000023
:101DC0000000000000000000000000000000000013
:101DD0003FF8600000000000000000000000001F4D
:101DE000FFFFF00000000000000000000000007F86
:101DF000FFFFC0000000000000000000000005FF21
:101E0000FFFFE400000000000000000000000FFFE2
:101E1000FFFF8000000000000000000000000F0035
:101E20000FFF00000000000000000000000006009E
:101E300000FF8000000000000000000000001860AB
:101E4000001FF800000000000000000000003C78C7
:101E50000007800000000000000000000000306E5D
:101E600000000000000000000000000000005073AF
:101E70008000000000000000000000000000800062
:101E8000C00005FF0037F000001F800000010000C7
:101E9000FC0000000007FF8003F030000000080095
:101EA000380000000000BFFFFFE0040000019000C8
:101EB00060000000000087FFFFFE00000001E0005E
:101EC00060000000000001FFFFFFC00000004000B4
:101ED000600600000000001FFC0008000000000079
:101EE000E00600001000800000000000000000007C
:101EF00060060000300180000000000000000000CB
:101F00007006000030070000000000000000000024
:101F10007FC60000E00F0000000000000000000F7E
:101F200081CC0010E0380000000000000000000F2D
:101F3000C008860000600000000000000000001FD4
:101F4000F620000021C00000000000000000001F7B
:101F5000C000000000000000000000000000003E83
:101F6000000000000401000000000000000000F874
:101F7000000000004800000000000000000001F028
:101F800000000000700000000000000000000720BA
:101F900000000000F00078000000000000003C3865
:101FA00000000000F0007800000000000000783021
:101FB00000000001C0007800000000000001E00007
:101FC0000000000380007000000000000003C0005B
:101FD000000000060000700000000000000000008B
:101FE0000000001C000030000000000000000000A5
:101FF0000000003C00003000000000000000000075
:1020000000000078000070000000000000000000E8
:10201000000001E00000F0000000000000000000EF
:10202000000003C00003F0000000000000000000FA
:102030000000060000078000000000000000000013
:102040000000000000000000000000000000000090
:102050000000000000000000000000000000000080
:102060000000000000000000000000000000000070
:102070000000000000000000000000000000000060
:102080000000000000000000000000000000000050
:102090000000000000000000000000000000000040
:1020A0000000000000000000000000000000000030
:1020B0000000000000000000000000000000000020
:1020C0000000000000000000000000000000000010
:1020D0000000000000000000000000000000000000
:1020E00000000000000000000000000000000000F0
:1020F00000000000000000000000000000000000E0
:1021000000000000000000000000000000000000CF
:1021100000000000000000000000000000000000BF
:1021200000000000000000000000000000000000AF
:10213000000000000000000000000000000000009F
:10214000000000000000000000000000000000008F
:10215000000000000000000000000000000000007F
:10216000000000000000000000000000000000006F
:10217000000000000000000000000000000000005F
:10218000000000000000000000000000000000004F
:10219000000000000000000000000000000000003F
:1021A000000000000000000000000000000000002F
:1021B000000000000000000000000000000000001F
:1021C000000000000000000000000000000000000F
:1021D0003FF8600000000000000000000000001F49
:1021E000FFFFF00000000000000000000000007F82
:1021F000FFFFC0000000000000000000000005FF1D
:10220000FFFFE400000000000000000000000FFFDE
:10221000FFFF8000000000000000000000000F0031
:102220000FFF00000000000000000000000006009A
:1022300000FF8000000000000000000000001860A7
:10224000001FF800000000000000000000003C78C3
:102250000007800000000000000000000000306E59
:1022600000000000000000000000000000005073AB
:10227000800000000000000000000000000080005E
:10228000C00005FF0037F000001F800000010000C3
:10229000FC0000000007FF8003F030000000080091
:1022A000380000000000BFFFFFE0040000019000C4
:1022B00060000000000087FFFFFE00000001E0005A
:1022C00060000000000001FFFFFFC00000004000B0
:1022D000600600000000001FFC0008000000000075
:1022E000E006000010008000000000000000000078
:1022F00060060000300180000000000000000000C7
:102300007006000030070000000000000000000020
:102310007FC60000E00F0000000000000000000F7A
:1023200081CC0010E0380000000000000000000F29
:10233000C008860000600000000000000000001FD0
:10234000F620000021C00000000000000000001F77
:10235000C000000000000000000000000000003E7F
:10236000000000000401000000000000000000F870
:10237000000000004800000000000000000001F024
:1023800000000000700000000000000000000720B6
:1023900000000000F00078000000000000003C3861
:1023A00000000000F000780000000000000078301D
:1023B00000000001C0007800000000000001E00003
:1023C0000000000380007000000000000003C00057
:1023D0000000000600007000000000000000000087
:1023E0000000001C000030000000000000000000A1
:1023F0000000003C00003000000000000000000071
:1024000000000078000070000000000000000000E4
:10241000000001E00000F0000000000000000000EB
:10242000000003C00003F0000000000000000000F6
:10243000000006000007800000000000000000000F
:10244000000000000000000000000000000000008C
:10245000000000000000000000000000000000007C
:10246000000000000000000000000000000000006C
:10247000000000000000000000000000000000005C
:10248000000000000000000000000000000000004C
:10249000000000000000000000000000000000003C
:1024A000000000000000000000000000000000002C
:1024B000000000000000000000000000000000001C
:1024C000000000000000000000000000000000000C
:1024D00000000000000000000000000000000000FC
:1024E00000000000000000000000000000000000EC
:1024F00000000000000000000000000000000000DC
:1025000000000000000000000000000000000000CB
:1025100000000000000000000000000000000000BB
:1025200000000000000000000000000000000000AB
:10253000000000000000000000000000000000009B
:10254000000000000000000000000000000000008B
:10255000000000000000000000000000000000007B
:10256000000000000000000000000000000000006B
:10257000000000000000000000000000000000005B
:10258000000000000000000000000000000000004B
:10259000000000000000000000000000000000003B
:1025A000000000000000000000000000000000002B
:1025B000000000000000000000000000000000001B
:1025C000000000000000000000000000000000000B
:1025D00000060000000000000000000000000000F5
:1025E0000FFFB00000000000000000000000007FAE
:1025F000FFFC00000000000000000000000001FFE0
:10260000FFF81FC0000000000000000000000FFFE6
:10261000FFFFF800000000000000000000001FE0C5
:102620001FFFC000000000000000000000001E832B
:10263000887F8000000000000000000000003C00D7
:10264000000FF00000000000000000000000F8FA99
:102650000003870000000000000000000000F8FEFA
:102660000000C00000000000000000000001E0E7E2
:1026700006003000000000000000FF000001000321
:10268000CE0007800FF7FFF0000FFC0000020200F1
:10269000DC00007FC007FFFFF1FF8000000418008E
:1026A000780000000000DFFFFFFC00000007400092
:1026B00030000000000043FFFFF000000003C000F6
:1026C000200004001800603FFF800000000180002F
:1026D0005FFFFF00187FA003E00000000000000083
:1026E0007FEFFF801CFFA000000000000000000042
:1026F000601C00000C0060000000000000000000F2
:102700003F1800000E00E000000000000000003F45
:10271000C03800000601E000000000000000007862
:10272000003C0005FE21A00000000000000000E3C6
:10273000FCA3E7F01FFFD0000000000000000180B4
:102740003F80180001830800000000000000030023
:102750004200000000C306000000000000000F005F
:10276000C40000000023FCF00000000000001E0078
:1027700090000000001103F00000000000001C01A8
:1027800020000000000D00F80000000000007C01A7
:102790008000000000078038000000000000700387
:1027A000800000000007C0180000000000000007C3
:1027B000000000000007C00C000000000000000E38
:1027C000000000000007C00C000000000000001C1A
:1027D000000000000007800E00000000000000382C
:1027E000000000000007000E000000000000007064
:1027F00000000000000E000E00000000000001E0DC
:1028000000000000001E000E000000000000078015
:1028100000000000003C001E00000000000000005E
:102820000000000001FC003E00000000000000006D
:10283000000000000F8000380000000000000000D1
:10284000000000001F000000000000000000000069
:102850000000000000000000000000000000000078
:102860000000000000000000000000000000000068
:102870000000000000000000000000000000000058
:102880000000000000000000000000000000000048
:102890000000000000000000000000000000000038
:1028A0000000000000000000000000000000000028
:1028B0000000000000000000000000000000000018
:1028C0000000000000000000000000000000000008
:1028D00000000000000000000000000000000000F8
:1028E00000000000000000000000000000000000E8
:1028F00000000000000000000000000000000000D8
:1029000000000000000000000000000000000000C7
:1029100000000000000000000000000000000000B7
:1029200000000000000000000000000000000000A7
:102930000000000000000000000000000000000097
:102940000000000000000000000000000000000087
:102950000000000000000000000000000000000077
:102960000000000000000000000000000000000067
:102970000000000000000000000000000000000057
:102980000000000000000000000000000000000047
:102990000000000000000000000000000000000037
:1029A0000000000000000000000000000000000027
:1029B0000000000000000000000000000000000017
:1029C0000000000000000000000000000000000007
:1029D00000000000000000000000000000000000F7
:1029E0000000000000000000000000000000007F68
:1029F000F01DC000000000000000000000001FFFEC
:102A0000FFFF0000000000000000000000001FFFAA
:102A1000FFFFF000000000000000000000001F8029
:102A20003FFFFFC0000000000000000000001E8308
:102A300088FFE0000000000000000000000078C0F7
:102A4000001FF80000000000000000000000F1E29C
:102A50000003E60000000000000000000001F1F8A3
:102A60000000600000000000000000000003418F33
:102A70000C00180000000000000000000006000329
:102A80008C0007800001FFFF80000800000C02009E
:102A9000F800000FC03FFFFFF0183000000E4000AC
:102AA000300000000000FFFFFFE1C000000F8000C9
:102AB0003000000000003FFFFFFF004000078000E3
:102AC000200004000000103FFFFE1E000000000078
:102AD0005FFDFF00007FF000FFFFE000000000004E
:102AE0007FEFFF8000FFF00000000000000000000A
:102AF000401C00000000100000000000000000006A
:102B000070180000018018000000000000000000A4
:102B1000603000000180180000000000000000018B
:102B2000807E0000F1C01C000000000000000007D3
:102B3000FFFDF5FE0FFFEE00000000000000002882
:102B4000FBE80E0000100F80000000000000007E77
:102B500001080000000C070E00000000000001E06A
:102B600001100000000303FF000000000000070048
:102B700001100000000041CF0000000000003C00F8
:102B800001900000000011E3800000000001F80047
:102B900000A00000000007E1C00000000007E00006
:102BA00000E00000000003E0E0000000001F000063
:102BB00000E00000000001E07000000000000000E4
:102BC00000E00000000000E03C0000000000000009
:102BD00000C00000000000E00FC000000000000086
:102BE00000C00000000000E007E00000000000005E
:102BF000008000000000007000E000000000000005
:102C000001800000000000700000000000000000D3
:102C100001800000000000780000000000000000BB
:102C200003800000000003C000000000000000005E
:102C30001F00000000000F00000000000000000066
:102C40003E00000000001F00000000000000000027
:102C50000000000000000000000000000000000074
:102C60000000000000000000000000000000000064
:102C70000000000000000000000000000000000054
:102C80000000000000000000000000000000000044
:102C90000000000000000000000000000000000034
:102CA0000000000000000000000000000000000024
:102CB0000000000000000000000000000000000014
:102CC0000000000000000000000000000000000004
:102CD00000000000000000000000000000000000F4
:102CE00000000000000000000000000000000000E4
:102CF00000000000000000000000000000000000D4
:102D000000000000000000000000000000000000C3
:102D100000000000000000000000000000000000B3
:102D200000000000000000000000000000000000A3
:102D30000000000000000000000000000000000093
:102D40000000000000000000000000000000000083
:102D50000000000000000000000000000000000073
:102D60000000000000000000000000000000000063
:102D70000000000000000000000000000000000053
:102D80000000000000000000000000000000000043
:102D90000000000000000000000000000000000033
:102DA0000000000000000000000000000000000023
:102DB0000000000000000000000000000000000013
:102DC0000000000000000000000000000000000003
:102DD00000000000000000000000000000000000F3
:102DE000000000000000000000000000000003FFE1
:102DF000F0000000000000000000000000000FFFD5
:102E0000FF800000000000000000000000001FFF25
:102E1000FFFFF000000000000000000000001FFFA6
:102E2000FFFFF000000000000000000000001E385E
:102E30003FFFFE00000000000000000000007000E6
:102E400000FF888000000000000000000000F1E0AA
:102E50000C5FC00000000000000000000001F1F065
:102E60001C4B80000000000000000000000381BC3B
:102E70000C00400000000000000000000000023FC5
:102E8000000218001F800007F80000000018180753
:102E9000D80001001001FFFFFF800000001C0000AF
:102EA000F8000008100027FFFFE00000001F0000EE
:102EB000744A10281488007FFFFC00000006000000
:102EC0002000000000001018FFFFF00000000000CC
:102ED00028000000000010000007F00000000000C3
:102EE0004858000816001000000000000000000014
:102EF0004C5B081C36901000000000000000000031
:102F00004C7209181790000000000000000000003B
:102F10007C300008030000000000000000000000FA
:102F2000783000031F800300000000000000000054
:102F30004C3E00C0004000180000000000000000EF
:102F400080FFC000000F801C000000000000000196
:102F50000B108000000003BC000000000000000116
:102F6000040840000000003E0000000000000002D5
:102F7000100040000000001E0000000000000004DF
:102F8000400220000000000F0000000000000009C7
:102F9000000120000000000F800000000000001E63
:102FA0000000900000000007C00000000000003C8E
:102FB0000000780000000007F00000000000007032
:102FC0000000380000000007FC000000000000C006
:102FD0000000380000000007FE000000000007802D
:102FE00000001800000000078000000000000F0033
:102FF00000000C0000000001C0000000000078008C
:1030000000000E0000000000F00000000000F800CA
:103010000000070000000000F000000000000000B9
:1030200000000F0000000000300000000000000061
:1030300000003E0000000000000000000000000052
:1030400000007C0000000000000000000000000004
:103050000000000000000000000000000000000070
:103060000000000000000000000000000000000060
:103070000000000000000000000000000000000050
:103080000000000000000000000000000000000040
:103090000000000000000000000000000000000030
:1030A0000000000000000000000000000000000020
:1030B0000000000000000000000000000000000010
:1030C0000000000000000000000000000000000000
:1030D00000000000000000000000000000000000F0
:1030E00000000000000000000000000000000000E0
:1030F00000000000000000000000000000000000D0
:1031000000000000000000000000000000000000BF
:1031100000000000000000000000000000000000AF
:10312000000000000000000000000000000000009F
:10313000000000000000000000000000000000008F
:10314000000000000000000000000000000000007F
:10315000000000000000000000000000000000006F
:10316000000000000000000000000000000000005F
:10317000000000000000000000000000000000004F
:10318000000000000000000000000000000000003F
:10319000000000000000000000000000000000002F
:1031A000000000000000000000000000000000001F
:1031B000000000000000000000000000000000000F
:1031C00000000000000000000000000000000000FF
:1031D0000000000000000000000000000000007C73
:1031E000000000000000000000000000000001FFDF
:1031F000800000000000000000000000000003FF4D
:10320000F80000000000000000000000000007FFC0
:10321000FFFE0000000000000000000000000F8022
:10322000FFFFC7C0000000000000000000003E8358
:1032300087FFFC00000000000000000000007CE0B0
:1032400000FFF80000000000000000000000FCF299
:10325000001FC2000000000000000000000180F814
:103260000003E00000000000000000000002009EDB
:103270000000E0000000000000000000000C030F50
:1032800080001C01800FFFFFFFF800000006B00364
:10329000C00000700000FFFFFFFF0000000780007B
:1032A000EC000000000047FFFFFFC000000300002B
:1032B0007C000000000041FFFFF060000000000003
:1032C000380004000000403FFFFE1800000000002E
:1032D0001FFBFF001C7F4000F800C400000000003E
:1032E0003FFDFF800CFFC000000000000000000058
:1032F000200C00000600400000000000000000005C
:10330000100C00000300200000000000000000007E
:10331000180C00000F00300000000000000000004A
:103320000E0C0001FCC007F00000000000000000CF
:1033300007FDFF9C003FFFF00000000000000000C0
:10334000040FA7C0000007F8000000000000000004
:10335000041BF80000000638000000000000000018
:10336000023408000000061C0000000000000000FD
:10337000022304000000070E00000000000000000F
:103380000220C2000000070700000000000000004B
:103390000240320000000703C000000000000000EF
:1033A00002400D8000000383E000000000000000E8
:1033B00003C003C0000000F87F0000000000000010
:1033C00003C001E00000003C0F000000000000000E
:1033D0000380003800000000000000000000000032
:1033E0000300000F000000000000000000000000CB
:1033F0000300000780000000000000000000000043
:1034000007000001C00000000000000000000000F4
:1034100006000000E00000000000000000000000C6
:103420003E000000E000000000000000000000007E
:10343000F800000020000000000000000000000074
:10344000000000000000000000000000000000007C
:10345000000000000000000000000000000000006C
:10346000000000000000000000000000000000005C
:10347000000000000000000000000000000000004C
:10348000000000000000000000000000000000003C
:10349000000000000000000000000000000000002C
:1034A000000000000000000000000000000000001C
:1034B000000000000000000000000000000000000C
:1034C00000000000000000000000000000000000FC
:1034D00000000000000000000000000000000000EC
:1034E00000000000000000000000000000000000DC
:1034F00000000000000000000000000000000000CC
:1035000000000000000000000000000000000000BB
:1035100000000000000000000000000000000000AB
:10352000000000000000000000000000000000009B
:10353000000000000000000000000000000000008B
:10354000000000000000000000000000000000007B
:10355000000000000000000000000000000000006B
:10356000000000000000000000000000000000005B
:10357000000000000000000000000000000000004B
:10358000000000000000000000000000000000003B
:10359000000000000000000000000000000000002B
:1035A000000000000000000000000000000000001B
:1035B000000000000000000000000000000000000B
:1035C00000000000000000000000000000000000FB
:1035D000000000000000000000000000000000FFEC
:1035E000C00000000000000000000000000001FF1B
:1035F000F80000000000000000000000000003FFD1
:10360000FE0000000000000000000000000007FFB6
:10361000FF800000000000000000000000000783A1
:10362000FFE00700000000000000000000001E8313
:103630009FFC0E00000000000000000000003E3073
:1036400003FFFC00000000000000000000007CBE42
:10365000003FF00000000000000000000000803E7D
:103660000007FC0000000000000000000001000F47
:103670000000E000F1F01FE0000000000002030382
:1036800000002006000FFFFC000000000003800186
:10369000800007E00001CFFFFFFFC0000003C00073
:1036A000C0000000000081FFFFFFF8000000800064
:1036B000600000003000807FFFFF3E00000000003F
:1036C000600004003000801FFFFF81000000000048
:1036D0003FFFFF00387F8007FE0020000000000051
:1036E0001FFFBF8018FE80000000000000000000E7
:1036F0000C01C000180100000000000000000000E4
:103700000400C000180E00000000000000000000CF
:103710000400E0005E03FF00000000000000000065
:103720000400600300E0FF00000000000000000053
:1037300003FF7F98000FE7800000000000000000FA
:1037400000C07FC00001C380000000000000000036
:10375000002070000001C1C0000000000000000057
:1037600000107000000380E0000000000000000076
:103770000008680000030070000000000000000066
:103780000004680000070070000000000000000056
:10379000000238000006007C00000000000000006D
:1037A0000001F8000007003E0000000000000000DB
:1037B0000000FE04000700060000000000000000FA
:1037C0000000FFFFF0070000000000000000000004
:1037D0000000701FE0030000000000000000000077
:1037E00000003000000000000000000000000000A9
:1037F00000001800000000000000000000000000B1
:1038000000000C00000000000000000000000000AC
:1038100000000E000000000000000000000000009A
:1038200000001C000000000000000000000000007C
:103830000000F00000000000000000000000000098
:103840000001F00000000000000000000000000087
:103850000000000000000000000000000000000068
:103860000000000000000000000000000000000058
:103870000000000000000000000000000000000048
:103880000000000000000000000000000000000038
:103890000000000000000000000000000000000028
:1038A0000000000000000000000000000000000018
:1038B0000000000000000000000000000000000008
:1038C00000000000000000000000000000000000F8
:1038D00000000000000000000000000000000000E8
:1038E00000000000000000000000000000000000D8
:1038F00000000000000000000000000000000000C8
:1039000000000000000000000000000000000000B7
:1039100000000000000000000000000000000000A7
:103920000000000000000000000000000000000097
:103930000000000000000000000000000000000087
:103940000000000000000000000000000000000077
:103950000000000000000000000000000000000067
:103960000000000000000000000000000000000057
:103970000000000000000000000000000000000047
:103980000000000000000000000000000000000037
:103990000000000000000000000000000000000027
:1039A0000000000000000000000000000000000017
:1039B0000000000000000000000000000000000007
:1039C00000000000000000000000000000000000F7
:1039D0007E0000000000000000000000000000FF6A
:1039E000FF8000000000000000000000000003FF56
:1039F000FFE000000000000000000000000003FFE6
:103A0000FFF000000000000000000000000003B90B
:103A1000FFF80000000000000000000000000700A8
:103A20003FFC0000000000000000000000001F3804
:103A300017FE0000000000000000000000001E381B
:103A400001FF0000000007F80000000000003C1C1F
:103A50000C7FC08000001FFE000000000000203E20
:103A60001C4FFE0000003FFF000000000000804FE0
:103A70000C01F8007F00FFFF8000000000018407B8
:103A800000023804001FFFFFC00000000000F00328
:103A90008C0003C8100303FFE00030000000F000BA
:103AA000C8000008100000FFF81FF0000000000030
:103AB0006C4A10281488007FFFFF000000000000FF
:103AC000300000004000001FFFFF800000000000E9
:103AD0001800000060000007FFE000000000000088
:103AE00008400008D0120000FE00000000000000A6
:103AF0000C4B081CD09800000000000000000000E3
:103B00000C423118D09800000000000000000000B6
:103B10000C0030088C0200000000000000000000D3
:103B20000C00300807F8F80000000000000000005A
:103B300007003820007FF0000000000000000000B7
:103B400001E01F00003FE000000000000000000056
:103B500000781000003FC0000000000000000000DE
:103B6000005C10000079C0000000000000000000B0
:103B70000007080001E180000000000000000000D4
:103B8000004408000783000000000000000000005F
:103B9000002448F00E0700000000000000000000B4
:103BA000002409E01C0700000000000000000000E5
:103BB000003C2F80380700000000000000000000DB
:103BC000003FDE003803C0000000000000000000DD
:103BD000000E07003003C0000000000000000000DD
:103BE000000000F000018000000000000000000064
:103BF0000000003E00000000000000000000000087
:103C00000000000E000000000000000000000000A6
:103C1000000000078000000000000000000000001D
:103C20000000000380000000000000000000000011
:103C30000000000380000000000000000000000001
:103C40000000000200000000000000000000000072
:103C50000000000000000000000000000000000064
:103C60000000000000000000000000000000000054
:103C70000000000000000000000000000000000044
:103C80000000000000000000000000000000000034
:103C90000000000000000000000000000000000024
:103CA0000000000000000000000000000000000014
:103CB0000000000000000000000000000000000004
:103CC00000000000000000000000000000000000F4
:103CD00000000000000000000000000000000000E4
:103CE00000000000000000000000000000000000D4
:103CF00000000000000000000000000000000000C4
:103D000000000000000000000000000000000000B3
:103D100000000000000000000000000000000000A3
:103D20000000000000000000000000000000000093
:103D30000000000000000000000000000000000083
:103D40000000000000000000000000000000000073
:103D50000000000000000000000000000000000063
:103D60000000000000000000000000000000000053
:103D70000000000000000000000000000000000043
:103D80000000000000000000000000000000000033
:103D90000000000000000000000000000000000023
:103DA0000000000000000000000000000000000013
:103DB0000000000000000000000000000000000003
:103DC00001F80000000000000000000000000001F9
:103DD000BFFF00000000000000000000000000DF46
:103DE000FFFFC0000000000000000000000001FF15
:103DF000FFFFE0000000000000000000000001FFE5
:103E0000FFFFE0000000000000000000000001C112
:103E1000FFFFF00000000000000000000000032091
:103E20001FFEF000000000000000000000000FB8BE
:103E30001FFE1000000000000000000000000F1C2A
:103E400000FFC80000000000000000000000162E67
:103E50000C7FF00000000FFC000000000000303F6D
:103E60001C4F000000003FFE000000000000602723
:103E70000C0040006101FFFF000000000000C703CC
:103E800080021804003FFFFF8000000000007C015A
:103E9000CC0003E8100F81FFC000000000007C0090
:103EA000C80000081002007FF000000000000000C1
:103EB0006C4A1028D488001FFF000000000000009A
:103EC00020000000C000000FFFF000000000000014
:103ED0003C00000180020003FFFFFE000000000024
:103EE0001C4000091000000007FFE0000000000077
:103EF0001C4B081FB0F00000000000000000000094
:103F00001C42311990F00000000000000000000089
:103F10002C003008FC000000000000000000000041
:103F20001E003808FC33C000000000000000000044
:103F30000F0C1800740FE0000000000000000000EB
:103F40000DFC1800040F80000000000000000000BD
:103F500018781000121F0000000000000000000090
:103F6000418420000F7C00000000000000000003DE
:103F7000C00420000FF0000000000000000000015D
:103F8000800020003F8000000000000000000000D2
:103F9000C0034001FF00000000000000000000001E
:103FA0007002400F0E000000000000000000000042
:103FB0003C81C01E0E000000000000000000000058
:103FC0000FF1C01C0E000000000000000000000007
:103FD0000001FFF8000000000000000000000000E9
:103FE000000003800000000000000000000000004E
:103FF00000000000000000000000000000000000C1
:1040000000000000000000000000000000000000B0
:1040100000000000000000000000000000000000A0
:104020000000000000000000000000000000000090
:104030000000000000000000000000000000000080
:104040000000000000000000000000000000000070
:104050000000000000000000000000000000000060
:104060000000000000000000000000000000000050
:104070000000000000000000000000000000000040
:104080000000000000000000000000000000000030
:104090000000000000000000000000000000000020
:1040A0000000000000000000000000000000000010
:1040B0000000000000000000000000000000000000
:1040C00000000000000000000000000000000000F0
:1040D00000000000000000000000000000000000E0
:1040E00000000000000000000000000000000000D0
:1040F00000000000000000000000000000000000C0
:1041000000000000000000000000000000000000AF
:10411000000000000000000000000000000000009F
:10412000000000000000000000000000000000008F
:10413000000000000000000000000000000000007F
:10414000000000000000000000000000000000006F
:10415000000000000000000000000000000000005F
:10416000000000000000000000000000000000004F
:10417000000000000000000000000000000000003F
:10418000000000000000000000000000000000002F
:10419000000000000000000000000000000000001F
:1041A000000000000000000000000000000000000F
:1041B00000000000000000000000000000000000FF
:1041C00000000000000000000000000000000000EF
:1041D000207FE00000000000000000000000003F21
:1041E000E7FFEC000000000000000000000001FFFD
:1041F000FFF800000000000000000000000001FFC8
:10420000FFF9C0000000000000000000000001FBFA
:10421000FFFFF8000000000000000000000001C2E5
:104220001FFFFE000000000000000000000003DF90
:104230008BFFE100000000000000000000000F8E76
:1042400000FFF800000000000000000000000F8FD9
:10425000001FC000000000000000000000001E0F52
:10426000000300000000031FF000000000001083A6
:104270008000C00380E01FFFFF80000000002021BD
:10428000C0003C78001FFFFFFFE0000000004180FD
:10429000E00000000007FFFFFFF8000000007400CE
:1042A00060000000C0020001FFFE000000003C00B2
:1042B00030000000C00200000FFF000000001800E6
:1042C00010000400C002000001FFF0000000000028
:1042D0001FFFFF01807E0000003FE00000000000A3
:1042E0003FFEFF8180FE00000003F8000000000098
:1042F0004600C001800C000000000000000000002B
:104300004600C001C03000000000000000000000B6
:104310006600C003C1800000000000000000000132
:10432000F618600DF1000000000000000000003EE3
:10433000FFFF6770B9000000000000000000001FD0
:10434000CFE06F80598000000000000000000018DE
:104350001FC080005F800000000000000000001807
:1043600000C300007FC00000000000000000000C3F
:10437000008C0000FFC00000000000000000000EE4
:1043800003E0001FFC000000000000000000000F20
:10439000E380003EFC00000000000000000000037D
:1043A000E3C1307070000000000000000000000059
:1043B000203FFCE0E00000000000000000000000E2
:1043C000000380E180000000000000000000000009
:1043D0000000008700000000000000000000000056
:1043E0000000001E000000000000000000000000AF
:1043F0000000007C00000000000000000000000041
:10440000000000E0000000000000000000000000CC
:10441000000003C0000000000000000000000000D9
:10442000000000000000000000000000000000008C
:10443000000000000000000000000000000000007C
:10444000000000000000000000000000000000006C
:10445000000000000000000000000000000000005C
:10446000000000000000000000000000000000004C
:10447000000000000000000000000000000000003C
:10448000000000000000000000000000000000002C
:10449000000000000000000000000000000000001C
:1044A000000000000000000000000000000000000C
:1044B00000000000000000000000000000000000FC
:1044C00000000000000000000000000000000000EC
:1044D00000000000000000000000000000000000DC
:1044E00000000000000000000000000000000000CC
:1044F00000000000000000000000000000000000BC
:1045000000000000000000000000000000000000AB
:10451000000000000000000000000000000000009B
:104520000000000C000C000C000C000C000C000C37
:10453000000C000C000C000C0000000C000C000033
:10454000000000000000001B001B001B001B001BE4
:10455000000000000000000000000000000000005B
:104560000000000000000000000080198019801980
:104570008019C07FC07F80190033C07FC07F0033A7
:104580000033003300330000000000000000001E74
:10459000003F807580650074003C001E00078005A8
:1045A000806580658075003F001E000400040000E7
:1045B0000000007000D840D8C0D880D90073000631
:1045C000000C801BC036C066C046C00680030000D9
:1045D000000000000000001E003F003300330033E5
:1045E000001E000CC03CC066806380618063C03EDA
:1045F000801C0000000000000000000C000C000CFB
:10460000000C000C00000000000000000000000092
:104610000000000000000000000000008000000119
:104620000003000600060004000C000C000C000C47
:10463000000C000C000400060006000300018000CE
:10464000002000100018000C000C000400060006FA
:1046500000060006000600060004000C000C00180E
:10466000001000200000000C002D003F001E003351
:10467000000000000000000000000000000000003A
:104680000000000000000000000000000000000C1E
:10469000000C000C000CC0FFC0FF000C000C000C54
:1046A000000C0000000000000000000000000000FE
:1046B00000000000000000000000000000000000FA
:1046C000000000000000000C000C000400040008C2
:1046D00000000000000000000000000000000000DA
:1046E0000000001E001E000000000000000000008E
:1046F00000000000000000000000000000000000BA
:104700000000000000000000000000000000000C9D
:10471000000C000000000000000000030003000384
:104720000006000600060006000C000C000C000C41
:104730000018001800180000000000000000001E13
:10474000003F0033806180618061806D806D806199
:10475000806180610033003F001E00000000000007
:1047600000000006000E001E0036002600060006AF
:10477000000600060006000600060006000600000F
:10478000000000000000001E003F80738061806117
:10479000800100030006000C001800300060807FDC
:1047A000807F0000000000000000001C003E00634D
:1047B00000630003000E000E000380018001806191
:1047C0008073003F001E0000000000000000000693
:1047D000000E000E001E001E001600360036006699
:1047E000807F807F000600060006000000000000B9
:1047F0000000007F007F006000600060006E007FAE
:1048000080638001800180618073003F001E000092
:10481000000000000000001E003F80338061006047
:10482000006E007F80738061806180618033003F13
:10483000001E0000000000000000807F807F8001DB
:104840000003000300060006000C000C000C00082A
:104850000018001800180000000000000000001EF2
:10486000003F8063806180610021001E003F806105
:10487000806180618061003F001E00000000000038
:104880000000001E003F00738061806180618073C2
:10489000803F801D800180610073003F001E00008A
:1048A0000000000000000000000000000000000CFC
:1048B000000C000000000000000000000000000CE0
:1048C000000C0000000000000000000000000000DC
:1048D00000000000000C000C0000000000000000C0
:1048E0000000000C000C00040004000800000000A0
:1048F0000000000080008003000E003800600038D7
:10490000000E800380000000000000000000000096
:1049100000000000000000000000807F807F000099
:104920000000807F807F0000000000000000000089
:1049300000000000000000000000000000400070C7
:10494000001C000780010007001C007000400000F0
:1049500000000000000000000000001F803FC07148
:10496000C060C000C00180030007000E000C000CF6
:104970000000000C000C0000000000000000001E01
:10498000003F803180718063806F806D806D806FAB
:10499000806700600032003E001C00000000000044
:1049A0000000000E000E001B001B001B001B8031CE
:1049B0008031803F803F8031C060C060C0600000B7
:1049C000000000000000007C007E006300630063C4
:1049D0000063007E007E0063806180618063007FF1
:1049E000007E0000000000000000001E003F80313B
:1049F00080610060006000600060006000608061B5
:104A00008031003F001E0000000000000000007C1C
:104A1000007F00638063806180618061806180616C
:104A2000806100630063007E007C000000000000E5
:104A30000000807F807F0060006000600060007F79
:104A4000007F0060006000600060807F807F000069
:104A5000000000000000807F807F00600060006038
:104A60000060007F007F0060006000600060006008
:104A700000600000000000000000001E003F8031C8
:104A8000806100600060006080638063806180619D
:104A90008031803F001E00000000000000008061A7
:104AA00080618061806180618061807F807F8061C2
:104AB0008061806180618061806100000000000091
:104AC0000000003F003F000C000C000C000C000C2C
:104AD000000C000C000C000C000C003F003F00001C
:104AE0000000000000008001800180018001800141
:104AF0008001800180018001806180618073003FBE
:104B0000001E0000000000000000C0608061006323
:104B100000660066006C0078007C0066006600633A
:104B200080618061C0600000000000000000006043
:104B30000060006000600060006000600060006075
:104B4000006000600060807F807F00000000000047
:104B50000000C071C071C07BC07AC06AC06AC06EFC
:104B6000C064C060C060C060C060C060C060000061
:104B70000000000000008071807180798079807968
:104B8000806D806D806D80658067806780678063E1
:104B900080630000000000000000001E003F0033A2
:104BA00080618061806180618061806180618061FD
:104BB0000033003F001E0000000000000000007EE7
:104BC000007F80638061806180618063007F007E00
:104BD00000600060006000600060000000000000F5
:104BE0000000001E003F00338061806180618061B1
:104BF00080618061806580670033803F401E0000D7
:104C0000000000000000007E007F80638061806102
:104C10008063007F007E00660063006380618061C6
:104C2000C0600000000000000000000E001F803186
:104C3000803100300038001E0007800380618061F1
:104C40008031003F001E0000000000000000C0FF97
:104C5000C0FF000C000C000C000C000C000C000C41
:104C6000000C000C000C000C000C00000000000008
:104C7000000080618061806180618061806180610D
:104C800080618061806180618073003F001E000050
:104C9000000000000000C060C060C0608031803152
:104CA0008031001B001B001B001B000E000E000EBD
:104CB00000040000000000000000C0C0C0C0C0C070
:104CC000C0C0C0C0C0CC804C804C805E805280523E
:104CD0008073806180610000000000000000C0C09F
:104CE000806080610033003B001E000C000C001E41
:104CF000001F003B80718061C0C000000000000008
:104D00000000C0C08061806100330033001E001EBF
:104D1000000C000C000C000C000C000C000C00003F
:104D2000000000000000803F803F8001000300037E
:104D30000006000C000C0018001800300060807F96
:104D4000807F000000000000000F000F000C000C2E
:104D5000000C000C000C000C000C000C000C000CF3
:104D6000000C000C000C000C000F000F00000018DD
:104D700000180018000C000C000C000C00060006C7
:104D8000000600060003000300030000000000000E
:104D9000001E001E000600060006000600060006B3
:104DA00000060006000600060006000600060006D3
:104DB000001E001E0000000C000C001E001200333C
:104DC00000338061806100000000000000000000EE
:104DD00000000000000000000000000000000000D3
:104DE00000000000000000000000000000000000C3
:104DF0000000000000000000E0FF0000000000389C
:104E00000018000C0000000000000000000000007E
:104E10000000000000000000000000000000000092
:104E200000000000000000000000001F803F8061C3
:104E30008001801F803F80618063807FC0380000D8
:104E40000000000000000060006000600060006E74
:104E5000007F807380618061806180618073007FEA
:104E6000006E0000000000000000000000000000D4
:104E70000000001E003F8073806100600060806160
:104E80008073003F001E0000000000000000800151
:104E9000800180018001801D803F8073806180617E
:104EA000806180618073803F801D000000000000F1
:104EB00000000000000000000000001E003F007322
:104EC0008061807F807F00608071003F001E000055
:104ED000000000000000C007C00F000C000C807F25
:104EE000807F000C000C000C000C000C000C000C6F
:104EF000000C0000000000000000000000000000A6
:104F0000801D803F807380618061806180618073DB
:104F1000803F801D80018063007F003E00000060B4
:104F2000006000600060006F807F80718061806140
:104F3000806180618061806180610000000000000C
:104F400000000006000600000000003E003E0006D3
:104F50000006000600060006000600060006000027
:104F6000000000000006000600000000003E003EB9
:104F70000006000600060006000600060006000601
:104F800000060046007E003C0000006000600060FB
:104F90000060806100630066006C007C0076006346
:104FA00000638061C0600000000000000000003E5F
:104FB000003E000600060006000600060006000689
:104FC00000060006000600060006000000000000C3
:104FD0000000000000000000000080DDC0FFC0CE27
:104FE000C0CCC0CCC0CCC0CCC0CCC0CCC0CC0000ED
:104FF0000000000000000000000000000000006F42
:10500000807F80718061806180618061806180616A
:1050100080610000000000000000000000000000AF
:105020000000001E003F80738061806180618061AC
:105030008073003F001E0000000000000000000020
:1050400000000000006E007F8073806180618061DD
:1050500080618073007F006E00600060006000600F
:105060000000000000000000801D803F8073806110
:105070008061806180618073803F801D800180013C
:1050800080018001000000000000000000000067B7
:10509000803F0039003000300030003000300030F8
:1050A00000300000000000000000000000000000D0
:1050B0000000001E803F80610060007F803F800113
:1050C0008061007F001E0000000000000000000062
:1050D000000800180018007F007F00180018001852
:1050E000001800180018801F800F0000000000004A
:1050F000000000000000000000008061806180610D
:1051000080618061806180618063807F803D00007C
:105110000000000000000000000000000000C0606F
:10512000803180318031001B001B001B000E000EFF
:105130000006000000000000000000000000000069
:10514000000080DD80DD80DD0055005500550077D2
:105150000077002200220000000000000000000094
:10516000000000000000806100330033001E000CCE
:10517000000C001E003300338061000000000000BE
:105180000000000000000000806180618031003379
:105190000033001B001B001B000E000E000E001C45
:1051A000007C007000000000000000000000C07FD4
:1051B000C07F800100030006000C00180030C07F93
:1051C000C07F00000000000080038007000600068A
:1051D000000600060006000E001C001C000E000663
:1051E0000006000600060006800780030006000691
:1051F000000600060006000600060006000600067F
:10520000000600060006000600060006000600066E
:105210000038003C000C000C000C000C000C000ED0
:1052200000070007000E000C000C000C000C000C26
:10523000003C0038000000000000000000000000FA
:1052400000008038807F0047000000000000000060
:10525000000000000000000000000000000000004E
:10526000010203040607080900000000010203040C
:1052700090520008000000202000000000160008E6
:10528000B052000820000020580800001016000846
:105290000B120000FC4400080000000000000000A9
:1052A0000100000010000000000000000024F400D5
:04000005080000ED02
:00000001FF
